S01100004D6F74696F6E4C45442E73726563C8
S11300000C9434000C9457000C9446000C94460055
S11300100C9446000C9446000C9446000C94460044
S11300200C9446000C9446000C9446000C94460034
S11300300C9446000C9446000C9446000C94460024
S11300400C947B000C9446000C9446000C944600DF
S11300500C9446000C9446000C9446000C94460004
S11300600C9446000C94460011241FBECFEFD8E038
S1130070DEBFCDBF21E0A0E0B1E001C01D92A230FF
S1130080B207E1F70E9473000C94AC000C940000DA
S1130090EEE6F0E0808181608083E89A529883E004
S11300A085BF2798259A3B9A439A14BC08951F92BA
S11300B00F920FB60F9211248F932D9A43983B9A67
S11300C085E085BD16BC8F910F900FBE0F901F90D9
S11300D018952D98439A3B9815BC109201011092E3
S11300E0000116BC08950E94480078941F99FECF21
S11300F00E946900FBCF1F920F920FB60F9211243A
S11301002F933F934F935F936F937F938F939F931B
S1130110AF93BF93EF93FF9316BC8091000190912E
S11301200101019690930101809300018233914073
S113013010F00E946900FF91EF91BF91AF919F91E0
S11301408F917F916F915F914F913F912F910F907C
S10F01500FBE0F901F901895F894FFCF7D
S9030000FC
