S01E0000333333365F4C6162365F54696D6572436F756E7465722E7372656353
S11300000C9434000C9446000C9446000C94460066
S11300100C9446000C9446000C9446000C94460044
S11300200C9446000C9446000C9446000C94460034
S11300300C9446000C9446000C9446000C94460024
S11300400C9453000C9446000C9446000C94460007
S11300500C9446000C9446000C9446000C94460004
S11300600C9446000C94460011241FBECFEFD8E038
S1130070DEBFCDBF21E0A0E0B1E001C01D92A13000
S1130080B207E1F70E9448000C9470000C94000041
S1130090259A2D9816BC14BC85E085BD81E080931B
S11300A06E007894FFCF1F920F920FB60F92112417
S11300B08F939F9316BC809100018F5F8A3719F04C
S11300C08093000106C01092000195B180E2892757
S11300D085B99F918F910F900FBE0F901F90189527
S10700E0F894FFCFBE
S9030000FC
